:030000000201BF3B
:0C01BF00787FE4F6D8FD75814602020648
:0D0702007F177E01EF1F70011E144E70F76F
:01070F0022C7
:02063E00AD0706
:10064000C2AFC2B3120702E4FCED30E004D2B380C3
:1006500002C2B3EDC313FD1207020CBC08EBD2B308
:08066000D2AF120702020702EB
:10000E0012024BFF600C12063E740129F9E43AFA13
:03001E0080EE224F
:09071000300303D2CD22C2CD2238
:03072500B2CD2230
:10047E004920616D2054726166666963204C69671C
:10048E00687473210A003F065B4F666D7D077F6FB0
:10049E00777C395E79710040761E7038375C733E1A
:1004AE00783D6750376EBF86DBCFE6EDFD87FFEFF9
:0104BE0046F7
:1004BF00012700043C00000000012800024000005A
:1004CF00013B000244003B022400040222001DC134
:1004DF0081012E00033700000004290000000001F5
:0F04EF004600013A00082F0003E803E8FF03303E
:0F06E2007D847C0AED1D70011C144C70F7DFF154
:0106F10022E6
:1006F200758E80758C77758A48D2A9D28CD2AF223A
:10068600AD07AC06538EEF538EF7438E048CD6AF70
:0A069600058FD753AFFB438E1022EF
:1005DD007593007594007591007592007595007571
:1005ED0096FF75B10075B20075B30075B40075C98D
:1005FD000075CA001206F2120668C290D2B6C2CCBD
:01060D0022CA
:1006CF00E4FEEF25E0FF92B4C2B50000D2B50EBE36
:0206DF0008F021
:0106E10022F6
:07071900C2B70000D2B722B5
:10042E00E4FFEF75F008A42430F8E6FC08E64C6013
:10043E003AEF75F008A42430F808E6161870011685
:10044E00E6FC08E64C7024EF75F008A42432F8E6BA
:10045E00FC08E6FDEF75F008A42430F8A60408A603
:0F046E0005EF75F008A4242FF876010FBF01B336
:01047D00225C
:1005A700E4F508E50875F008A4242FF8E6601DE5D2
:1005B7000875F008A42434F808E6FA08E6F91202E8
:1005C700CAE50875F008A4242FF8E4F60508E5083D
:0505D700C3940140CEB9
:0105DC0022FC
:040720007F3CDFFE3D
:0107240022B2
:1003DD00E4FCEF64014E700E04A805088002C333DF
:1003ED00D8FC4CF53922EF4E700F04A80508800299
:1003FD00C333D8FCF45CF53922EFF44E7004753933
:10040D00FF22EF64FE4E7003F53922EF64FD4E704E
:10041D000FAF0504A807088002C333D8FC6CF5396B
:01042D0022AC
:10060E00E4F546AD467F017E001203DD74292546D2
:10061E00F8E6F538AF391206CFAF381206CFAF373E
:10062E001206CF1207190546E546C3940240D4229E
:10033000300103120725E52E14601B14602C2402E3
:100340007046AE44AF457C007D0A12026412000381
:10035000AE44AF458026AE24AF257C007D0A120254
:1003600064120003AE24AF258012AE22AF237C00BE
:100370007D0A120264120003AE22AF237C007D0AC4
:09038000120264AF051200032211
:030389007F01FEF3
:10038C00AC37EF64014E700E04A805088002C3332D
:10039C00D8FC4CF53722EF4E700F04A805088002EC
:1003AC00C333D8FCF45CF53722EFF44E7004753788
:1003BC00FF22EF64FE4E7003F53722EF64FD4E70A2
:1003CC000FAF0504A807088002C333D8FC6CF537BF
:0103DC0022FE
:1004FF0030A612E4F521F528F540F541D2017D0330
:10050F00FFFE02038CE5217020752801C3E541949D
:10051F0032E54094004012E4F5287521017D031265
:09052F000389D203120710C20176
:0105380022A0
:10002600E52E1470030200BA14700302013924028B
:1000360060030201BE752701E4FD1203897D02E417
:10004600FF12038CE4F53BF52275231DAE44AF4544
:10005600FC7D0A12026474942FF58274043EF583C3
:10006600E493F4F529AE44AF457C007D0A120264A0
:1000760074942DF58274043CF583E493F4F52AE434
:100086007FE87E03FDFCAB3FAA3EA93DA83CC31218
:1000960002B950030201BEE545154570021544E458
:1000A600F53FF53EF53DF53CE54545446003020167
:1000B600BE052E2275440075453BE4FDFFFE120386
:1000C6008C0D7F0112038CAE24AF257C007D0A12B5
:1000D600026474942FF58274043EF583E493F4F578
:1000E60029AE24AF257C007D0A12026474942DF596
:1000F6008274043CF583E493F4F52A753B01E47FAE
:10010600E87E03FDFCAB3FAA3EA93DA83CC3120214
:10011600B950030201BEE525152570021524E4F544
:100126003FF53EF53DF53CE525452460030201BE5D
:10013600052E22752400752504E4FDFFFE12038CAE
:100146000DE4FF12038C0D7F0112038CAE22AF2348
:100156007C007D0A12026474942FF58274043EF5C5
:1001660083E493F4F529AE22AF237C007D0A1202C4
:100176006474942DF58274043CF583E493F4F52AB3
:10018600E47FE87E03FDFCAB3FAA3EA93DA83CC345
:100196001202B94023E523152370021522E4F53F28
:1001A600F53EF53DF53CE5234522700CF52EF53F71
:0901B600F53EF53DF53CF527226C
:100539001205DDE4FF1206CF1207197BFF7A047951
:100549007E1206B9300218C202120026E53B600588
:100559001204FF800AE4F5287D03FFFE12038C12C2
:07056900060E1205A780DD5C
:03000B000202D01E
:1002D000C0E0C0F0C0D075D000C000C004C005C0F0
:1002E00006C007D20212042EE527601BAF3FAE3EC8
:1002F000AD3DAC3CEF2401F53FE43EF53EE43DF579
:100300003DE43CF53C800C753F00753E00753D00BA
:10031000753C00E52860080541E54170020540D0C4
:1003200007D006D005D004D000D0D0D0F0D0E03235
:1006A00012024BFF642A60108F99D2002000FD7463
:0906B0000129F9E43AFA80E8227C
:080003008F99D2002000FD22BC
:1006B90012024B6010F599D2002000FD740129F94E
:0606C900E43AFA80EB2286
:10066800438E017FB57EFF120686E598543F4440CD
:0E067800F59853A23FD2ACD29CD2AFC2002262
:0300230002057063
:10057000C0E0C083C082C0D030981CC298740025EF
:100580003AF582E43400F583E599F0053AE53AD38B
:1005900094144003753A00309904C299C200D0D037
:0705A000D082D083D0E032CD
:1001CB00020539E493A3F8E493A34003F68001F20C
:1001DB0008DFF48029E493A3F85407240CC8C33335
:1001EB00C4540F4420C8834004F456800146F6DF04
:1001FB00E4800B01020408102040809004BFE47ED1
:10020B00019360BCA3FF543F30E509541FFEE493F8
:10021B00A360010ECF54C025E060A840B8E493A3BF
:10022B00FAE493A3F8E493A3C8C582C8CAC583CAEA
:10023B00F0A3C8C582C8CAC583CADFE9DEE780BEA2
:0104FE0000FD
:10024B00BB010689828A83E0225002E722BBFE02B1
:09025B00E32289828A83E49322E4
:10026400BC000BBE0029EF8DF084FFADF022E4CC7E
:10027400F875F008EF2FFFEE33FEEC33FCEE9DEC47
:10028400984005FCEE9DFE0FD5F0E9E4CEFD22ED8D
:10029400F8F5F0EE8420D21CFEADF075F008EF2FD7
:1002A400FFED33FD4007985006D5F0F222C398FDC8
:0502B4000FD5F0EA2265
:1002B900EB9FF5F0EA9E42F0E99D42F0E89C45F09B
:0102C9002212
:0602CA008A838982E473BF
:00000001FF
