:020003000B5B95
:0200050004A154
:020007000B16D6
:020009000EAD3A
:100D0C004920414D20534C433846314B30385F4DD0
:100D1C0033210A004C4544206E756D3A004C454415
:100D2C002053706565643A004C4544206D6F6465D2
:020D3C003A007B
:100E9400013000C103C102C101062903010A010195
:080EA4000102500000012800CA
:100CD6007593007594007591007592007595007571
:100CE60096FF75B10075B20075B30075B40075C98D
:100CF6000075CA00D2B4D2B020B40720B004E4F51F
:060D0600322275320122C9
:100A750078500806E618700106860664E87003EEED
:100A8500640370457850F608F6C37853E6943B182E
:100A9500E69400500C0806E61870010678587601B1
:100AA50022E47852F608F608E6C3943B5002062283
:100AB500E47854F608E6C3941750020622E4785504
:090AC500F6785706E618700106E8
:010ACE002205
:100861003003030208FE30B40CE4F522F523F5242D
:100871001209A4803DE52270190523E523C39402E2
:100881004030752201E4F523041209A4D203752234
:100891000222E522B4011BE523C3940A5004052377
:1008A10080100524E524D394034007E4F5240412C1
:1008B10009A430B00BE4F525F526F5271209A42289
:1008C100E52570190526E526C394024030752501FA
:1008D100E4F52674021209A4D203F52522E525B414
:1008E100011BE526C3940A50030526220527E527A7
:0D08F100D394034008E4F52774021209A413
:0108FE0022D7
:100ACF00300243E4FFFE120DB97D017F0312029243
:100ADF007B007A007929751A00751B06E4FFFE1258
:100AEF000C5E7D017F031202927B007A00792975DB
:100AFF001A00751B06E4FFFE120C21852934852A86
:070B0F0033852B35C20222E1
:100E1200300116120F2F0528E528D39406400AE464
:090E2200F528C201D204120F19D7
:010E2B0022A4
:100E2C00AD07AC06538EEF538EF7438E048CD6AFC2
:0A0E3C00058FD753AFFB438E102241
:010F3200229C
:100E46008F1A2212098BFF6010F599D2002000FD3F
:0A0E5600740129F9E43AFA80EA2257
:070F22008F1A222000FD22BE
:100E60008F0E2212098BFF6010F599D2002000FD31
:0A0E7000740129F9E43AFA80EA223D
:100C9B00E51975F06484AEF0EFD39401402C120E7D
:100CAB0046E51975F064842430FF120F22EE75F0BF
:100CBB000A842430FF120F22EE75F00A84E5F0242B
:0A0CCB0030FF120F227F0A120F22E1
:010CD50022FC
:010F3300229B
:040DD800AD07AC06B1
:100DDC00E4FE0DEDAA0470010C14F5828A83E493F1
:080DEC00FF120F220EBE07EA00
:010DF40022DC
:100B5B00120CD6120E7A120F327BFF7A0D790C7FA4
:100B6B0001120E607B007A007929751A00751B063D
:100B7B00E4FFFE120C21852934852A33852B357F22
:100B8B00031201807F011201807F02120180E4FFBA
:040B9B001202092217
:100EAD00120A757858E66002E4F6120E127D327F52
:070EBD000212029280EA22FA
:1004A1007B007A00792F120861E52F24FE60500449
:1004B1006003020546E53270210534E534D3943CEE
:1004C10040047F018002AF348F347BFF7A0D7920A5
:1004D1008534197F02120C9B802115351535E535C0
:1004E100C3940150047F148002AF358F357BFF7AAE
:1004F1000D79298535197F02120C9BD2028046E5C0
:100501003270211534E534C3940150047F3C8002DC
:10051100AF348F347BFF7A0D79208534197F021235
:100521000C9B801F0533E533D3940240047F008088
:1005310002AF338F337BFF7A0D79348533197F0214
:10054100120C9BD202E52F60127F02120209120ED9
:100551007A7F02120180D201E4F52F853429853397
:100561002A85352B120ACFC2037D0A7F031202921C
:040571000204A122BD
:100B1600E53270047F058002AF33EF146013146072
:100B26001C24027024C205852C1DAF341207C28016
:100B3600DFC205852D1DAF341207C280D3C20585DD
:100B46002E1DAF341207C280C7C205AF341207117B
:050B560080BE80BC22FE
:03000B00020013DD
:10000E00C2AF80FE3212001285D00B75D008AAE066
:10001E00C28CE58A2437F58AE58C34F8F58CD28CBF
:10002E00EC2462F8E6BC030274FFC39581B414009D
:10003E0040CE7904785916E608700BC2AFE630E16F
:10004E00034418F6D2AF08D9EDEA8BD03006012260
:10005E00D50DFCC0E0C0D0C0F0C083C082C000C0CF
:10006E0001C002C003C004C005C006C007E50C23D2
:10007E00245AF87440C2AF46F6D2AFD206E50CFF52
:10008E0023245AF80F0808BF04047F00785AE6307C
:10009E00E4F200E50CC39F5020050C7461250CF8AA
:1000AE00E6FDA68108E6AE0CBE030274FFCDF8E8AD
:1000BE006D60E008E6C0E080F6E50CD39F4027E5D2
:1000CE000C2462F8E6AE0CBE030274FFFD18E6CDFA
:1000DE00F8E5816D6006D0E0F61880F5E50C246138
:1000EE00C8F6150C80D3750D0AE50C23245AF87F3B
:1000FE0004C2AFE610E61E30E00310E20C7F0030C3
:05010E00E10730E304ED
:100113007F0854F4547CC6D2AF54804207C20622EF
:10012300F6D2AFD007D006D005D004D003D002D08A
:1001330001D000D082D083D0F0D0D0D0E0C206224C
:100143007861A68174036006FF0876FFDFFB7F04F6
:10015300E47859F608F608DFFA785A763090000307
:10016300740193C0E0E493C0E0750D0A43890175FF
:0D0173008A30758CF8D28CD2AFD2A922034D
:0E0ED700E4F5C7F5C5F5C675C3FF75C4FF2267
:100C2100AD07AC06C2AF75C78075C5018CC3AF05F2
:100C31008FC475C65A75C6A500E5C21209A40DBDBB
:100C410000010C740129F9E43AFAE51B151B700245
:0D0C5100151A14451A70D5120ED7D2AF2215
:100DB900AD07AC06C2AF8CC3AF058FC475C78075CC
:0F0DC900C50375C65A75C6A500120ED7D2AF2244
:100C5E00AD07AC06C2AF75C78075C5028CC3AF05B4
:100C6E008FC412098BF5C275C65A75C6A5000DBD87
:100C7E0000010C740129F9E43AFAE51B151B700208
:0D0C8E00151A14451A70D5120ED7D2AF22D8
:0D0EE5007F177E01EF1F70011E144E70F785
:010EF20022DD
:020D3E00AD07FF
:100D4000C2AFC2B3120EE5E4FCED30E004D2B380D2
:100D500002C2B3EDC313FD120EE50CBC08EBD2B317
:080D6000D2AF120EE5120EE500
:010D68002268
:100EC40012098BFF600C120D3E740129F9E43AFA01
:030ED40080EE228B
:090F1900300403D2B322C2B3225A
:030F2F00B2B32238
:050F2900007F01DFFE66
:010F2E0022A0
:0C0F0100D2B5D2B5120F29C2B5C2B5227C
:0C0F0D00D2B5D2B5C2B5C2B5120F292270
:0D0EF300C2B5C2B5E4FE120F290EBE3CF9D7
:010F000022CE
:020DF500AE0747
:100DF700D2AFE4FDEE30E705120F018003120F0DAD
:0A0E0700EE25E0FE0DBD08ECD2AFB1
:010E110022BE
:100E7A00E4FBFAE4FF120DF5120F290BBB00010A7D
:090E8A00BA01F0BB2CED120EF3CD
:010E9300223C
:040BE1008F378D3885
:100BE500E4F539F53AC3E53A9537E5399400502BE4
:100BF500E4F53BF53CC3E53C9538E53B94005011E5
:100C05007D017F02120292053CE53C7002053B80A6
:0B0C1500E4053AE53A7002053980CA98
:010C200022B1
:02071100AB0734
:10071300EB75F00384FFEB75F00384AAF0EF7074BC
:10072300EB2402FFE433FE7C007D031209B6EF6085
:10073300067E007FFF800D3005067E007F02800469
:100743007E007F00120DF5EB2401FFE433FE7C00F5
:100753007D031209B6EF60067E007FFF800D300532
:10076300067E007F0280047E007F00120DF5EBFF02
:100773007E007C007D031209B6EF60067E007FFFDA
:10078300800D3005067E007F0280047E007F00120C
:100793000DF58023E4FCECC39B50087FFF120DF59D
:1007A3000C80F3E4FCC374039AFFECC39F5008E48A
:0E07B300FF120DF50C80EE7D0A7F02120292FD
:0107C1002215
:0207C200AB0783
:1007C400EB75F00384FFEB75F00384AAF0EF70621D
:1007D400EB2402FFE433FE7C007D031209B6EF60D4
:1007E40004AF1D80093005047F0280027F00120DD2
:1007F400F5EB2401FFE433FE7C007D031209B6EF20
:100804006004AF1D80093005047F0280027F00125E
:100814000DF5EBFF7E007C007D031209B6EF60044A
:10082400AF1D80093005047F0280027F00120DF5A0
:100834008023E4FCECC39B5008AF1D120DF50C8023
:10084400F3E4FCC374039AFFECC39F5008E4FF1263
:0C0854000DF50C80EE7D0A7F021202926E
:010860002275
:020B9F00AC07A1
:100BA100EC75F00384ABF0E4FAEAC39C501630070D
:100BB1000B3007047F0280027F0080027F00120D4C
:100BC100F50A80E5E4FAC374039BFFEAC39F50086A
:0F0BD100E4FF120DF50A80EE7D0A7F02120292F8
:010BE00022F2
:020575008F43B2
:10057700E54375F00384F545E54375F0038485F09D
:10058700463008047F0280027F008F44E544D394FD
:10059700FF4003020646E5457064E5432402FFE495
:1005A70033FE7C007D031209B6EF6004AF44800977
:1005B7003008047F0280027F00120DF5E543240115
:1005C700FFE433FE7C007D031209B6EF6004AF44FD
:1005D70080093008047F0280027F00120DF5AF43C7
:1005E7007E007C007D031209B6EF6004AF448009EA
:1005F7003008047F0280027F00120DF58025E4FC9D
:10060700ECC395435008AF44120DF50C80F2E4FC9F
:10061700C374039546FFECC39F5008E4FF120DF522
:100627000C80EDE544C3943250097D08AF35120BB9
:0F063700E180077D02AF35120BE1054402059308
:010646002291
:020647008F47DB
:10064900E54775F0038485F04A7548FF3009047F52
:100659000280027F00E548D39F5003020710E54955
:100669007064E5472402FFE433FE7C007D03120930
:10067900B6EF6004AF4880093009047F0280027F29
:1006890000120DF5E5472401FFE433FE7C007D03EC
:100699001209B6EF6004AF4880093009047F02806F
:1006A900027F00120DF5AF477E007C007D03120921
:1006B900B6EF6004AF4880093009047F0280027FE9
:1006C90000120DF58025E4FCECC395475008AF48AE
:1006D900120DF50C80F2E4FCC37403954AFFECC3D8
:1006E9009F5008E4FF120DF50C80EDE548C39432E4
:1006F90050097D05AF35120BE180077D02AF351238
:070709000BE1154802065543
:0107100022C6
:0602F1008F3D8D3E8B3FA6
:1002F700200A030203C5E53FD39403505E7540020D
:10030700E4F541E541C3953D50097FFF120DF50521
:100317004180F0E4F541E541C3953E5009AF4012F5
:100327000DF5054180F07F02120DF5E4F541E53D3D
:10033700F404C3953E2402FFE541C39F5009E4FF3F
:10034700120DF5054180E7120EF3AD357F0212025B
:10035700920540E540C394FF40A622E53F75F003B0
:100367008485F042754002E4F541E541C3953D506F
:10037700097FFF120DF5054180F0E4F541E541C322
:10038700953E5009AF40120DF5054180F07F0212EE
:100397000DF5E4F541C374029542FFE541C39F5053
:1003A70009E4FF120DF5054180EB120EF3AD357F21
:1003B700021202920540E540C394FF40AA22E53F9E
:1003C700D3940350677540FF7F0280027F00EF7070
:1003D700030204A0E4F541E541C3953D50097FFFC1
:1003E700120DF5054180F0E4F541E541C3953E5016
:1003F70009AF40120DF5054180F07F02120DF5E4BB
:10040700F541C374029542FFE541C39F5009E4FFDC
:10041700120DF5054180EB120EF3AD357F02120286
:10042700921540E540D39401509E80A0E53F75F0BA
:10043700038485F0427540FF7F0280027F00EF60F2
:1004470058E4F541E541C3953D50097FFF120DF58D
:10045700054180F0E4F541E541C3953E5009AF40C1
:10046700120DF5054180F07F02120DF5E4F541C349
:1004770074029542FFE541C39F5009E4FF120DF551
:10048700054180EB120EF3AD357F02120292154043
:09049700E540D3940150A180A3BB
:0104A0002239
:020D69008F1EDB
:100D6B00C207120B9FE4F51FE51FC3951E5016D249
:100D7B000AAB1F7D01AF1F1202F17D017F02120230
:050D8B0092051F80E34A
:010D90002240
:020D91008F4E83
:100D9300E4F54FE54FC3954E501BC3E54E954F14F5
:100DA300FFC20AAB4F7D011202F17D017F021202E5
:050DB30092054F80DEF7
:010DB8002218
:020A0B008F4B0F
:100A0D00300B047F0280027F008F4DE54DD394FFA4
:100A1D00504BE4FCECC3954B500F300B047F028020
:100A2D00027F00120DF50C80EBE54CB40107AF4DC4
:100A3D00120DF5801DE54C7014300B047F02800201
:100A4D007F00EF14C3954DFF120DF580057FFF124A
:100A5D000DF57D01AF35120BE1054D80AE120EF394
:070A6D007D64AF35120BE1BF
:010A7400225F
:10018000EFD3940340037FFF22745A2F2FF8E62009
:10019000E5F4C2AFE64430F6D2AFAE0CEEC39F50EA
:1001A000210E74612EF8E6F908E618BE030274FF0A
:1001B000FDED69600909E71919F7090980F31616B9
:1001C00080DAEED39F400405810581EED39F402263
:1001D00074612EF808E6F9EEB50C02A9811806063E
:1001E000E6FDED6960091919E70909F71980F31EA1
:1001F00080D9EF2461F8E604F8EF2F049000039310
:09020000F608EF2F93F67F0022AF
:10020900EFD3940340037FFF22EF23245AF8E6300B
:10021900E5F4C2AFE6548CF6D2AFE50CB5070A7423
:10022900612FF8E6F581020089502E74622FF8E6F5
:10023900BF030274FFFD18E6F974612FF8FBE6FCB1
:10024900E96C6008A805E7F61D1980F4A803A6055E
:100259001FE50CB507E37F002274622FF8E6FD184D
:1002690086010F74612FF8A601088604E50CB5070D
:1002790002AC81ED6C60080D09A805E6F780F4E58C
:090289000CB507DE89817F00221B
:100292008FF0E4FFFEE50C232459F8C2A930F70DD4
:1002A2007F08E6600B2DF660325030800730F10691
:1002B200EDF660277E020830F010C2AFE610E725A7
:1002C2000E30E20CD2AF7F048014C2AFE610E71505
:1002D20054EC4EF6D2AFD2A90200897F0808EF444F
:0F02E20083F4C2AF56C6D2AFD2A954804FFF22C9
:030000000208FFF4
:0C08FF00787FE4F6D8FD7581640209469C
:10098B00BB010689828A83E0225002E722BBFE026A
:09099B00E32289828A83E493229D
:1009A400BB010689828A83F0225002F722BBFE0132
:0209B400F3222C
:1009B600BC000BBE0029EF8DF084FFADF022E4CC25
:1009C600F875F008EF2FFFEE33FEEC33FCEE9DECEE
:1009D600984005FCEE9DFE0FD5F0E9E4CEFD22ED34
:1009E600F8F5F0EE8420D21CFEADF075F008EF2F7E
:1009F600FFED33FD4007985006D5F0F222C398FD6F
:050A06000FD5F0EA220B
:10090B00020143E493A3F8E493A34003F68001F2BE
:10091B0008DFF48029E493A3F85407240CC8C333ED
:10092B00C4540F4420C8834004F456800146F6DFBC
:10093B00E4800B0102040810204080900E94E47EAA
:10094B00019360BCA3FF543F30E509541FFEE493B1
:10095B00A360010ECF54C025E060A840B8E493A378
:10096B00FAE493A3F8E493A3C8C582C8CAC583CAA3
:10097B00F0A3C8C582C8CAC583CADFE9DEE780BE5B
:010EAC000045
:00000001FF
